{
  "contractName": "Users",
  "abi": [
    {
      "constant": true,
      "inputs": [
        {
          "name": "",
          "type": "uint256"
        }
      ],
      "name": "users",
      "outputs": [
        {
          "name": "name",
          "type": "string"
        },
        {
          "name": "status",
          "type": "string"
        },
        {
          "name": "walletAddress",
          "type": "address"
        },
        {
          "name": "createdAt",
          "type": "uint256"
        },
        {
          "name": "updatedAt",
          "type": "uint256"
        }
      ],
      "payable": false,
      "stateMutability": "view",
      "type": "function"
    },
    {
      "constant": true,
      "inputs": [
        {
          "name": "",
          "type": "address"
        }
      ],
      "name": "usersIds",
      "outputs": [
        {
          "name": "",
          "type": "uint256"
        }
      ],
      "payable": false,
      "stateMutability": "view",
      "type": "function"
    },
    {
      "inputs": [],
      "payable": false,
      "stateMutability": "nonpayable",
      "type": "constructor"
    },
    {
      "anonymous": false,
      "inputs": [
        {
          "indexed": false,
          "name": "id",
          "type": "uint256"
        }
      ],
      "name": "newUserRegistered",
      "type": "event"
    },
    {
      "anonymous": false,
      "inputs": [
        {
          "indexed": false,
          "name": "id",
          "type": "uint256"
        }
      ],
      "name": "userUpdateEvent",
      "type": "event"
    },
    {
      "constant": false,
      "inputs": [
        {
          "name": "_userName",
          "type": "string"
        },
        {
          "name": "_status",
          "type": "string"
        }
      ],
      "name": "registerUser",
      "outputs": [
        {
          "name": "",
          "type": "uint256"
        }
      ],
      "payable": false,
      "stateMutability": "nonpayable",
      "type": "function"
    },
    {
      "constant": false,
      "inputs": [
        {
          "name": "_newUserName",
          "type": "string"
        },
        {
          "name": "_newStatus",
          "type": "string"
        }
      ],
      "name": "updateUser",
      "outputs": [
        {
          "name": "",
          "type": "uint256"
        }
      ],
      "payable": false,
      "stateMutability": "nonpayable",
      "type": "function"
    },
    {
      "constant": true,
      "inputs": [
        {
          "name": "_id",
          "type": "uint256"
        }
      ],
      "name": "getUserById",
      "outputs": [
        {
          "name": "",
          "type": "uint256"
        },
        {
          "name": "",
          "type": "string"
        },
        {
          "name": "",
          "type": "string"
        },
        {
          "name": "",
          "type": "address"
        },
        {
          "name": "",
          "type": "uint256"
        },
        {
          "name": "",
          "type": "uint256"
        }
      ],
      "payable": false,
      "stateMutability": "view",
      "type": "function"
    },
    {
      "constant": true,
      "inputs": [],
      "name": "getOwnProfile",
      "outputs": [
        {
          "name": "",
          "type": "uint256"
        },
        {
          "name": "",
          "type": "string"
        },
        {
          "name": "",
          "type": "string"
        },
        {
          "name": "",
          "type": "address"
        },
        {
          "name": "",
          "type": "uint256"
        },
        {
          "name": "",
          "type": "uint256"
        }
      ],
      "payable": false,
      "stateMutability": "view",
      "type": "function"
    },
    {
      "constant": true,
      "inputs": [],
      "name": "isRegistered",
      "outputs": [
        {
          "name": "",
          "type": "bool"
        }
      ],
      "payable": false,
      "stateMutability": "view",
      "type": "function"
    },
    {
      "constant": true,
      "inputs": [],
      "name": "totalUsers",
      "outputs": [
        {
          "name": "",
          "type": "uint256"
        }
      ],
      "payable": false,
      "stateMutability": "view",
      "type": "function"
    }
  ],
  "bytecode": "0x60806040523480156200001157600080fd5b506200004f600060206040519081016040528060008152506020604051908101604052806000815250620001fd640100000000026401000000009004565b50620000dc653333333333336040805190810160405280600981526020017f4c656f2042726f776e00000000000000000000000000000000000000000000008152506040805190810160405280600981526020017f417661696c61626c650000000000000000000000000000000000000000000000815250620001fd640100000000026401000000009004565b5062000169651111111111116040805190810160405280600881526020017f4a6f686e20446f650000000000000000000000000000000000000000000000008152506040805190810160405280600a81526020017f5665727920686170707900000000000000000000000000000000000000000000815250620001fd640100000000026401000000009004565b50620001f6652222222222226040805190810160405280600a81526020017f4d61727920536d697468000000000000000000000000000000000000000000008152506040805190810160405280601581526020017f4e6f7420696e20746865206d6f6f6420746f6461790000000000000000000000815250620001fd640100000000026401000000009004565b506200059b565b6000806000808673ffffffffffffffffffffffffffffffffffffffff1673ffffffffffffffffffffffffffffffffffffffff1681526020019081526020016000205490506000811415156200025157600080fd5b6001805490506000808773ffffffffffffffffffffffffffffffffffffffff1673ffffffffffffffffffffffffffffffffffffffff16815260200190815260200160002081905550600060018054809190600101620002b19190620003ee565b905060a0604051908101604052808681526020018581526020018773ffffffffffffffffffffffffffffffffffffffff168152602001428152602001428152506001828154811015156200030157fe5b906000526020600020906005020160008201518160000190805190602001906200032d92919062000423565b5060208201518160010190805190602001906200034c92919062000423565b5060408201518160020160006101000a81548173ffffffffffffffffffffffffffffffffffffffff021916908373ffffffffffffffffffffffffffffffffffffffff16021790555060608201518160030155608082015181600401559050507f2456c02735fb44894660d2af194ca5261385d8ee03675e1d75b0da1300a764cd816040518082815260200191505060405180910390a180925050509392505050565b8154818355818111156200041e576005028160050283600052602060002091820191016200041d9190620004aa565b5b505050565b828054600181600116156101000203166002900490600052602060002090601f016020900481019282601f106200046657805160ff191683800117855562000497565b8280016001018555821562000497579182015b828111156200049657825182559160200191906001019062000479565b5b509050620004a6919062000527565b5090565b6200052491905b80821115620005205760008082016000620004cd91906200054f565b600182016000620004df91906200054f565b6002820160006101000a81549073ffffffffffffffffffffffffffffffffffffffff02191690556003820160009055600482016000905550600501620004b1565b5090565b90565b6200054c91905b80821115620005485760008160009055506001016200052e565b5090565b90565b50805460018160011615610100020316600290046000825580601f1062000577575062000598565b601f01602090049060005260206000209081019062000597919062000527565b5b50565b61128180620005ab6000396000f3fe60806040526004361061008e576000357c0100000000000000000000000000000000000000000000000000000000900463ffffffff1680631d2e4afd146100935780632236684414610206578063365b98b2146102355780636ed6da9e14610396578063b8e21a5b146104fe578063bff1f9e114610563578063dd4a24251461058e578063fd1b515814610701575b600080fd5b34801561009f57600080fd5b506101f0600480360360408110156100b657600080fd5b81019080803590602001906401000000008111156100d357600080fd5b8201836020820111156100e557600080fd5b8035906020019184600183028401116401000000008311171561010757600080fd5b91908080601f016020809104026020016040519081016040528093929190818152602001838380828437600081840152601f19601f8201169050808301925050505050505091929192908035906020019064010000000081111561016a57600080fd5b82018360208201111561017c57600080fd5b8035906020019184600183028401116401000000008311171561019e57600080fd5b91908080601f016020809104026020016040519081016040528093929190818152602001838380828437600081840152601f19601f820116905080830192505050505050509192919290505050610845565b6040518082815260200191505060405180910390f35b34801561021257600080fd5b5061021b61085a565b604051808215151515815260200191505060405180910390f35b34801561024157600080fd5b5061026e6004803603602081101561025857600080fd5b81019080803590602001909291905050506108a2565b6040518080602001806020018673ffffffffffffffffffffffffffffffffffffffff1673ffffffffffffffffffffffffffffffffffffffff168152602001858152602001848152602001838103835288818151815260200191508051906020019080838360005b838110156102f05780820151818401526020810190506102d5565b50505050905090810190601f16801561031d5780820380516001836020036101000a031916815260200191505b50838103825287818151815260200191508051906020019080838360005b8381101561035657808201518184015260208101905061033b565b50505050905090810190601f1680156103835780820380516001836020036101000a031916815260200191505b5097505050505050505060405180910390f35b3480156103a257600080fd5b506103cf600480360360208110156103b957600080fd5b8101908080359060200190929190505050610a37565b6040518087815260200180602001806020018673ffffffffffffffffffffffffffffffffffffffff1673ffffffffffffffffffffffffffffffffffffffff168152602001858152602001848152602001838103835288818151815260200191508051906020019080838360005b8381101561045757808201518184015260208101905061043c565b50505050905090810190601f1680156104845780820380516001836020036101000a031916815260200191505b50838103825287818151815260200191508051906020019080838360005b838110156104bd5780820151818401526020810190506104a2565b50505050905090810190601f1680156104ea5780820380516001836020036101000a031916815260200191505b509850505050505050505060405180910390f35b34801561050a57600080fd5b5061054d6004803603602081101561052157600080fd5b81019080803573ffffffffffffffffffffffffffffffffffffffff169060200190929190505050610c76565b6040518082815260200191505060405180910390f35b34801561056f57600080fd5b50610578610c8e565b6040518082815260200191505060405180910390f35b34801561059a57600080fd5b506106eb600480360360408110156105b157600080fd5b81019080803590602001906401000000008111156105ce57600080fd5b8201836020820111156105e057600080fd5b8035906020019184600183028401116401000000008311171561060257600080fd5b91908080601f016020809104026020016040519081016040528093929190818152602001838380828437600081840152601f19601f8201169050808301925050505050505091929192908035906020019064010000000081111561066557600080fd5b82018360208201111561067757600080fd5b8035906020019184600183028401116401000000008311171561069957600080fd5b91908080601f016020809104026020016040519081016040528093929190818152602001838380828437600081840152601f19601f820116905080830192505050505050509192919290505050610c9d565b6040518082815260200191505060405180910390f35b34801561070d57600080fd5b50610716610d93565b6040518087815260200180602001806020018673ffffffffffffffffffffffffffffffffffffffff1673ffffffffffffffffffffffffffffffffffffffff168152602001858152602001848152602001838103835288818151815260200191508051906020019080838360005b8381101561079e578082015181840152602081019050610783565b50505050905090810190601f1680156107cb5780820380516001836020036101000a031916815260200191505b50838103825287818151815260200191508051906020019080838360005b838110156108045780820151818401526020810190506107e9565b50505050905090810190601f1680156108315780820380516001836020036101000a031916815260200191505b509850505050505050505060405180910390f35b6000610852338484610e11565b905092915050565b6000806000803373ffffffffffffffffffffffffffffffffffffffff1673ffffffffffffffffffffffffffffffffffffffff1681526020019081526020016000205411905090565b6001818154811015156108b157fe5b9060005260206000209060050201600091509050806000018054600181600116156101000203166002900480601f01602080910402602001604051908101604052809291908181526020018280546001816001161561010002031660029004801561095d5780601f106109325761010080835404028352916020019161095d565b820191906000526020600020905b81548152906001019060200180831161094057829003601f168201915b505050505090806001018054600181600116156101000203166002900480601f0160208091040260200160405190810160405280929190818152602001828054600181600116156101000203166002900480156109fb5780601f106109d0576101008083540402835291602001916109fb565b820191906000526020600020905b8154815290600101906020018083116109de57829003601f168201915b5050505050908060020160009054906101000a900473ffffffffffffffffffffffffffffffffffffffff16908060030154908060040154905085565b6000606080600080600080871180610a5457506001805490508711155b1515610a5f57600080fd5b610a67610ffa565b600188815481101515610a7657fe5b906000526020600020906005020160a06040519081016040529081600082018054600181600116156101000203166002900480601f016020809104026020016040519081016040528092919081815260200182805460018160011615610100020316600290048015610b295780601f10610afe57610100808354040283529160200191610b29565b820191906000526020600020905b815481529060010190602001808311610b0c57829003601f168201915b50505050508152602001600182018054600181600116156101000203166002900480601f016020809104026020016040519081016040528092919081815260200182805460018160011615610100020316600290048015610bcb5780601f10610ba057610100808354040283529160200191610bcb565b820191906000526020600020905b815481529060010190602001808311610bae57829003601f168201915b505050505081526020016002820160009054906101000a900473ffffffffffffffffffffffffffffffffffffffff1673ffffffffffffffffffffffffffffffffffffffff1673ffffffffffffffffffffffffffffffffffffffff16815260200160038201548152602001600482015481525050905087816000015182602001518360400151846060015185608001518494508393509650965096509650965096505091939550919395565b60006020528060005260406000206000915090505481565b60006001808054905003905090565b6000610ca761085a565b1515610cb257600080fd5b60008060003373ffffffffffffffffffffffffffffffffffffffff1673ffffffffffffffffffffffffffffffffffffffff1681526020019081526020016000205490506000600182815481101515610d0657fe5b9060005260206000209060050201905084816000019080519060200190610d2e929190611040565b5083816001019080519060200190610d47929190611040565b504281600401819055507f179dda4b314caed68129a8b8bbd77c7a4fb092c2d9fb3de452a4f8e4839dc876826040518082815260200191505060405180910390a1819250505092915050565b60006060806000806000610da561085a565b1515610db057600080fd5b60008060003373ffffffffffffffffffffffffffffffffffffffff1673ffffffffffffffffffffffffffffffffffffffff168152602001908152602001600020549050610dfc81610a37565b96509650965096509650965050909192939495565b6000806000808673ffffffffffffffffffffffffffffffffffffffff1673ffffffffffffffffffffffffffffffffffffffff168152602001908152602001600020549050600081141515610e6457600080fd5b6001805490506000808773ffffffffffffffffffffffffffffffffffffffff1673ffffffffffffffffffffffffffffffffffffffff16815260200190815260200160002081905550600060018054809190600101610ec291906110c0565b905060a0604051908101604052808681526020018581526020018773ffffffffffffffffffffffffffffffffffffffff16815260200142815260200142815250600182815481101515610f1157fe5b90600052602060002090600502016000820151816000019080519060200190610f3b9291906110f2565b506020820151816001019080519060200190610f589291906110f2565b5060408201518160020160006101000a81548173ffffffffffffffffffffffffffffffffffffffff021916908373ffffffffffffffffffffffffffffffffffffffff16021790555060608201518160030155608082015181600401559050507f2456c02735fb44894660d2af194ca5261385d8ee03675e1d75b0da1300a764cd816040518082815260200191505060405180910390a180925050509392505050565b60a0604051908101604052806060815260200160608152602001600073ffffffffffffffffffffffffffffffffffffffff16815260200160008152602001600081525090565b828054600181600116156101000203166002900490600052602060002090601f016020900481019282601f1061108157805160ff19168380011785556110af565b828001600101855582156110af579182015b828111156110ae578251825591602001919060010190611093565b5b5090506110bc9190611172565b5090565b8154818355818111156110ed576005028160050283600052602060002091820191016110ec9190611197565b5b505050565b828054600181600116156101000203166002900490600052602060002090601f016020900481019282601f1061113357805160ff1916838001178555611161565b82800160010185558215611161579182015b82811115611160578251825591602001919060010190611145565b5b50905061116e9190611172565b5090565b61119491905b80821115611190576000816000905550600101611178565b5090565b90565b61120a91905b8082111561120657600080820160006111b6919061120d565b6001820160006111c6919061120d565b6002820160006101000a81549073ffffffffffffffffffffffffffffffffffffffff0219169055600382016000905560048201600090555060050161119d565b5090565b90565b50805460018160011615610100020316600290046000825580601f106112335750611252565b601f0160209004906000526020600020908101906112519190611172565b5b5056fea165627a7a72305820d407f397b3d549499ba6d6e0bd29da10d78a138cb59523be80ef5fdee312d2130029",
  "source": "pragma solidity ^0.5.0;\n\n\n\ncontract Users {\n    // data structure that stores a user\n    struct User {\n        string name;\n        string status;\n        address walletAddress;\n        uint createdAt;\n        uint updatedAt;\n    }\n\n    // it maps the user's wallet address with the user ID\n    mapping (address => uint) public usersIds;\n\n    // Array of User that holds the list of users and their details\n    User[] public users;\n\n    // event fired when an user is registered\n    event newUserRegistered(uint id);\n\n    // event fired when the user updates his status or name\n    event userUpdateEvent(uint id);\n\n\n\n    // Modifier: check if the caller of the smart contract is registered\n    modifier checkSenderIsRegistered {\n    \trequire(isRegistered());\n    \t_;\n    }\n\n\n\n    /**\n     * Constructor function\n     */\n    constructor() public\n    {\n        // NOTE: the first user MUST be emtpy: if you are trying to access to an element\n        // of the usersIds mapping that does not exist (like usersIds[0x12345]) you will\n        // receive 0, that's why in the first position (with index 0) must be initialized\n        addUser(address(0x0), \"\", \"\");\n\n        // Some dummy data\n        addUser(address(0x333333333333), \"Leo Brown\", \"Available\");\n        addUser(address(0x111111111111), \"John Doe\", \"Very happy\");\n        addUser(address(0x222222222222), \"Mary Smith\", \"Not in the mood today\");\n    }\n\n\n\n    /**\n     * Function to register a new user.\n     *\n     * @param _userName \t\tThe displaying name\n     * @param _status        The status of the user\n     */\n    function registerUser(string memory _userName, string memory _status) public\n    returns(uint)\n    {\n    \treturn addUser(msg.sender, _userName, _status);\n    }\n\n\n\n    /**\n     * Add a new user. This function must be private because an user\n     * cannot insert another user on behalf of someone else.\n     *\n     * @param _wAddr \t\tAddress wallet of the user\n     * @param _userName\t\tDisplaying name of the user\n     * @param _status    \tStatus of the user\n     */\n    function addUser(address _wAddr, string memory  _userName, string memory _status) private\n    returns(uint)\n    {\n        // checking if the user is already registered\n        uint userId = usersIds[_wAddr];\n        require (userId == 0);\n\n        // associating the user wallet address with the new ID\n        usersIds[_wAddr] = users.length;\n        uint newUserId = users.length++;\n\n        // storing the new user details\n        users[newUserId] = User({\n        \tname: _userName,\n        \tstatus: _status,\n        \twalletAddress: _wAddr,\n        \tcreatedAt: now,\n        \tupdatedAt: now\n        });\n\n        // emitting the event that a new user has been registered\n        emit newUserRegistered(newUserId);\n\n        return newUserId;\n    }\n\n\n\n    /**\n     * Update the user profile of the caller of this method.\n     * Note: the user can modify only his own profile.\n     *\n     * @param _newUserName\tThe new user's displaying name\n     * @param _newStatus \tThe new user's status\n     */\n    function updateUser(string memory _newUserName, string memory _newStatus) checkSenderIsRegistered public\n    returns(uint)\n    {\n    \t// An user can modify only his own profile.\n    \tuint userId = usersIds[msg.sender];\n\n    \tUser storage user = users[userId];\n\n    \tuser.name = _newUserName;\n    \tuser.status = _newStatus;\n    \tuser.updatedAt = now;\n\n    \temit userUpdateEvent(userId);\n\n    \treturn userId;\n    }\n\n\n\n    /**\n     * Get the user's profile information.\n     *\n     * @param _id \tThe ID of the user stored on the blockchain.\n     */\n    function getUserById(uint _id) public view\n    returns(\n    \tuint,\n    \tstring memory,\n    \tstring memory,\n    \taddress,\n    \tuint,\n    \tuint\n    ) {\n    \t// checking if the ID is valid\n    \trequire( (_id > 0) || (_id <= users.length) );\n\n    \tUser memory i = users[_id];\n\n    \treturn (\n    \t\t_id,\n    \t\ti.name,\n    \t\ti.status,\n    \t\ti.walletAddress,\n    \t\ti.createdAt,\n    \t\ti.updatedAt\n    \t);\n    }\n\n\n\n    /**\n     * Return the profile information of the caller.\n     */\n    function getOwnProfile() checkSenderIsRegistered public view\n    returns(\n    \tuint,\n    \tstring memory,\n    \tstring memory,\n    \taddress,\n    \tuint,\n    \tuint\n    ) {\n    \tuint id = usersIds[msg.sender];\n\n    \treturn getUserById(id);\n    }\n\n\n\n    /**\n     * Check if the user that is calling the smart contract is registered.\n     */\n    function isRegistered() public view returns (bool)\n    {\n    \treturn (usersIds[msg.sender] > 0);\n    }\n\n\n\n    /**\n     * Return the number of total registered users.\n     */\n    function totalUsers() public view returns (uint)\n    {\n        // NOTE: the total registered user is length-1 because the user with\n        // index 0 is empty check the contructor: addUser(address(0x0), \"\", \"\");\n        return users.length - 1;\n    }\n\n}\n",
  "sourcePath": "/Users/donghao/Documents/code/emtech/pii-dapp/contracts/Users.sol",
  "compiler": {
    "name": "solc",
    "version": "0.5.0+commit.1d4f565a.Emscripten.clang"
  },
  "schemaVersion": "3.1.0",
  "updatedAt": "2022-04-15T04:18:11.069Z",
  "networkType": "ethereum",
  "devdoc": {
    "methods": {
      "getUserById(uint256)": {
        "params": {
          "_id": "The ID of the user stored on the blockchain."
        }
      },
      "registerUser(string,string)": {
        "params": {
          "_status": "The status of the user",
          "_userName": "The displaying name"
        }
      },
      "updateUser(string,string)": {
        "params": {
          "_newStatus": "The new user's status",
          "_newUserName": "The new user's displaying name"
        }
      }
    }
  },
  "userdoc": {
    "methods": {
      "constructor": "Constructor function",
      "getOwnProfile()": {
        "notice": "Return the profile information of the caller."
      },
      "getUserById(uint256)": {
        "notice": "Get the user's profile information."
      },
      "isRegistered()": {
        "notice": "Check if the user that is calling the smart contract is registered."
      },
      "registerUser(string,string)": {
        "notice": "Function to register a new user."
      },
      "totalUsers()": {
        "notice": "Return the number of total registered users."
      },
      "updateUser(string,string)": {
        "notice": "Update the user profile of the caller of this method. Note: the user can modify only his own profile."
      }
    }
  }
}